{
  "_format": "hh-sol-artifact-1",
  "contractName": "MetaTransaction",
  "sourceName": "contracts/MetaTransaction.sol",
  "abi": [
    {
      "inputs": [
        {
          "internalType": "address",
          "name": "_trustedForwarder",
          "type": "address"
        },
        {
          "internalType": "address",
          "name": "_styleTokenAddress",
          "type": "address"
        }
      ],
      "stateMutability": "nonpayable",
      "type": "constructor"
    },
    {
      "inputs": [
        {
          "internalType": "address",
          "name": "forwarder",
          "type": "address"
        }
      ],
      "name": "isTrustedForwarder",
      "outputs": [
        {
          "internalType": "bool",
          "name": "",
          "type": "bool"
        }
      ],
      "stateMutability": "view",
      "type": "function"
    },
    {
      "inputs": [
        {
          "internalType": "address",
          "name": "recipient",
          "type": "address"
        },
        {
          "internalType": "uint256",
          "name": "amount",
          "type": "uint256"
        }
      ],
      "name": "transferTokens",
      "outputs": [],
      "stateMutability": "nonpayable",
      "type": "function"
    },
    {
      "inputs": [],
      "name": "trustedForwarder",
      "outputs": [
        {
          "internalType": "address",
          "name": "",
          "type": "address"
        }
      ],
      "stateMutability": "view",
      "type": "function"
    }
  ],
  "bytecode": "0x60a060405234801561001057600080fd5b5060405161033038038061033083398101604081905261002f91610073565b6001600160a01b03918216608052600080546001600160a01b031916919092161790556100a6565b80516001600160a01b038116811461006e57600080fd5b919050565b6000806040838503121561008657600080fd5b61008f83610057565b915061009d60208401610057565b90509250929050565b60805161026a6100c6600039600081816056015260a8015261026a6000f3fe608060405234801561001057600080fd5b50600436106100415760003560e01c8063572b6c05146100465780637da0a8771461009b578063bec3fa17146100d2575b600080fd5b6100866100543660046101c6565b7f00000000000000000000000000000000000000000000000000000000000000006001600160a01b0390811691161490565b60405190151581526020015b60405180910390f35b6040516001600160a01b037f0000000000000000000000000000000000000000000000000000000000000000168152602001610092565b6100e56100e03660046101e8565b6100e7565b005b60005460405163a9059cbb60e01b81526001600160a01b038481166004830152602482018490529091169063a9059cbb906044016020604051808303816000875af115801561013a573d6000803e3d6000fd5b505050506040513d601f19601f8201168201806040525081019061015e9190610212565b6101a65760405162461bcd60e51b8152602060048201526015602482015274151bdad95b881d1c985b9cd9995c8819985a5b1959605a1b604482015260640160405180910390fd5b5050565b80356001600160a01b03811681146101c157600080fd5b919050565b6000602082840312156101d857600080fd5b6101e1826101aa565b9392505050565b600080604083850312156101fb57600080fd5b610204836101aa565b946020939093013593505050565b60006020828403121561022457600080fd5b815180151581146101e157600080fdfea2646970667358221220bc31715c6cf95c37d1108a95337407c40de6fd2ecb0fc518093ef45b36fb22e364736f6c63430008140033",
  "linkReferences": {},
  "deployedLinkReferences": {}
}